{
  "_format": "hh-sol-artifact-1",
  "contractName": "QuoterV3",
  "sourceName": "contracts/lens/QuoterV3.sol",
  "abi": [
    {
      "inputs": [
        {
          "internalType": "address",
          "name": "_factory",
          "type": "address"
        },
        {
          "internalType": "address",
          "name": "_v2Factory",
          "type": "address"
        },
        {
          "internalType": "address",
          "name": "_WETH9",
          "type": "address"
        }
      ],
      "stateMutability": "nonpayable",
      "type": "constructor"
    },
    {
      "inputs": [],
      "name": "WETH9",
      "outputs": [
        {
          "internalType": "address",
          "name": "",
          "type": "address"
        }
      ],
      "stateMutability": "view",
      "type": "function"
    },
    {
      "inputs": [],
      "name": "factory",
      "outputs": [
        {
          "internalType": "address",
          "name": "",
          "type": "address"
        }
      ],
      "stateMutability": "view",
      "type": "function"
    },
    {
      "inputs": [
        {
          "internalType": "bytes",
          "name": "path",
          "type": "bytes"
        },
        {
          "internalType": "bytes",
          "name": "protocolFlags",
          "type": "bytes"
        },
        {
          "internalType": "uint256",
          "name": "amountIn",
          "type": "uint256"
        }
      ],
      "name": "quoteExactInput",
      "outputs": [
        {
          "internalType": "uint256",
          "name": "amountOut",
          "type": "uint256"
        },
        {
          "internalType": "uint160[]",
          "name": "sqrtPriceX96AfterList",
          "type": "uint160[]"
        },
        {
          "internalType": "uint32[]",
          "name": "initializedTicksCrossedList",
          "type": "uint32[]"
        },
        {
          "internalType": "uint256",
          "name": "gasEstimate",
          "type": "uint256"
        }
      ],
      "stateMutability": "nonpayable",
      "type": "function"
    },
    {
      "inputs": [
        {
          "internalType": "bytes",
          "name": "path",
          "type": "bytes"
        },
        {
          "internalType": "uint256",
          "name": "amountIn",
          "type": "uint256"
        }
      ],
      "name": "quoteExactInput",
      "outputs": [
        {
          "internalType": "uint256",
          "name": "amountOut",
          "type": "uint256"
        },
        {
          "internalType": "uint160[]",
          "name": "sqrtPriceX96AfterList",
          "type": "uint160[]"
        },
        {
          "internalType": "uint32[]",
          "name": "initializedTicksCrossedList",
          "type": "uint32[]"
        },
        {
          "internalType": "uint256",
          "name": "gasEstimate",
          "type": "uint256"
        }
      ],
      "stateMutability": "nonpayable",
      "type": "function"
    },
    {
      "inputs": [
        {
          "components": [
            {
              "internalType": "address",
              "name": "tokenIn",
              "type": "address"
            },
            {
              "internalType": "address",
              "name": "tokenOut",
              "type": "address"
            },
            {
              "internalType": "uint256",
              "name": "amountIn",
              "type": "uint256"
            },
            {
              "internalType": "uint24",
              "name": "fee",
              "type": "uint24"
            },
            {
              "internalType": "uint160",
              "name": "sqrtPriceLimitX96",
              "type": "uint160"
            }
          ],
          "internalType": "struct IQuoterV3.QuoteExactInputSingleParams",
          "name": "params",
          "type": "tuple"
        }
      ],
      "name": "quoteExactInputSingle",
      "outputs": [
        {
          "internalType": "uint256",
          "name": "amountOut",
          "type": "uint256"
        },
        {
          "internalType": "uint160",
          "name": "sqrtPriceX96After",
          "type": "uint160"
        },
        {
          "internalType": "uint32",
          "name": "initializedTicksCrossed",
          "type": "uint32"
        },
        {
          "internalType": "uint256",
          "name": "gasEstimate",
          "type": "uint256"
        }
      ],
      "stateMutability": "nonpayable",
      "type": "function"
    },
    {
      "inputs": [
        {
          "internalType": "uint256",
          "name": "amountIn",
          "type": "uint256"
        },
        {
          "internalType": "address",
          "name": "tokenIn",
          "type": "address"
        },
        {
          "internalType": "address",
          "name": "tokenOut",
          "type": "address"
        }
      ],
      "name": "quoteExactInputSingleV2",
      "outputs": [
        {
          "internalType": "uint256",
          "name": "amountOut",
          "type": "uint256"
        }
      ],
      "stateMutability": "view",
      "type": "function"
    },
    {
      "inputs": [
        {
          "internalType": "bytes",
          "name": "path",
          "type": "bytes"
        },
        {
          "internalType": "uint256",
          "name": "amountOut",
          "type": "uint256"
        }
      ],
      "name": "quoteExactOutput",
      "outputs": [
        {
          "internalType": "uint256",
          "name": "amountIn",
          "type": "uint256"
        },
        {
          "internalType": "uint160[]",
          "name": "sqrtPriceX96AfterList",
          "type": "uint160[]"
        },
        {
          "internalType": "uint32[]",
          "name": "initializedTicksCrossedList",
          "type": "uint32[]"
        },
        {
          "internalType": "uint256",
          "name": "gasEstimate",
          "type": "uint256"
        }
      ],
      "stateMutability": "nonpayable",
      "type": "function"
    },
    {
      "inputs": [
        {
          "internalType": "bytes",
          "name": "path",
          "type": "bytes"
        },
        {
          "internalType": "bytes",
          "name": "protocolFlags",
          "type": "bytes"
        },
        {
          "internalType": "uint256",
          "name": "amountOut",
          "type": "uint256"
        }
      ],
      "name": "quoteExactOutput",
      "outputs": [
        {
          "internalType": "uint256",
          "name": "amountIn",
          "type": "uint256"
        },
        {
          "internalType": "uint160[]",
          "name": "sqrtPriceX96AfterList",
          "type": "uint160[]"
        },
        {
          "internalType": "uint32[]",
          "name": "initializedTicksCrossedList",
          "type": "uint32[]"
        },
        {
          "internalType": "uint256",
          "name": "gasEstimate",
          "type": "uint256"
        }
      ],
      "stateMutability": "nonpayable",
      "type": "function"
    },
    {
      "inputs": [
        {
          "components": [
            {
              "internalType": "address",
              "name": "tokenIn",
              "type": "address"
            },
            {
              "internalType": "address",
              "name": "tokenOut",
              "type": "address"
            },
            {
              "internalType": "uint256",
              "name": "amount",
              "type": "uint256"
            },
            {
              "internalType": "uint24",
              "name": "fee",
              "type": "uint24"
            },
            {
              "internalType": "uint160",
              "name": "sqrtPriceLimitX96",
              "type": "uint160"
            }
          ],
          "internalType": "struct IQuoterV3.QuoteExactOutputSingleParams",
          "name": "params",
          "type": "tuple"
        }
      ],
      "name": "quoteExactOutputSingle",
      "outputs": [
        {
          "internalType": "uint256",
          "name": "amountIn",
          "type": "uint256"
        },
        {
          "internalType": "uint160",
          "name": "sqrtPriceX96After",
          "type": "uint160"
        },
        {
          "internalType": "uint32",
          "name": "initializedTicksCrossed",
          "type": "uint32"
        },
        {
          "internalType": "uint256",
          "name": "gasEstimate",
          "type": "uint256"
        }
      ],
      "stateMutability": "nonpayable",
      "type": "function"
    },
    {
      "inputs": [
        {
          "internalType": "uint256",
          "name": "amountOut",
          "type": "uint256"
        },
        {
          "internalType": "address",
          "name": "tokenIn",
          "type": "address"
        },
        {
          "internalType": "address",
          "name": "tokenOut",
          "type": "address"
        }
      ],
      "name": "quoteExactOutputSingleV2",
      "outputs": [
        {
          "internalType": "uint256",
          "name": "amountIn",
          "type": "uint256"
        }
      ],
      "stateMutability": "view",
      "type": "function"
    },
    {
      "inputs": [
        {
          "internalType": "int256",
          "name": "amount0Delta",
          "type": "int256"
        },
        {
          "internalType": "int256",
          "name": "amount1Delta",
          "type": "int256"
        },
        {
          "internalType": "bytes",
          "name": "path",
          "type": "bytes"
        }
      ],
      "name": "uniswapV3SwapCallback",
      "outputs": [],
      "stateMutability": "view",
      "type": "function"
    },
    {
      "inputs": [],
      "name": "v2Factory",
      "outputs": [
        {
          "internalType": "address",
          "name": "",
          "type": "address"
        }
      ],
      "stateMutability": "view",
      "type": "function"
    }
  ],
  "bytecode": "0x60c06040523480156200001157600080fd5b5060405162002e6238038062002e62833981016040819052620000349162000092565b606092831b6001600160601b0319908116608052921b90911660a052600080546001600160a01b0319166001600160a01b03909216919091179055620000db565b80516001600160a01b03811681146200008d57600080fd5b919050565b600080600060608486031215620000a7578283fd5b620000b28462000075565b9250620000c26020850162000075565b9150620000d26040850162000075565b90509250925092565b60805160601c60a05160601c612d536200010f600039806106ad525080610b795280610f5f52806112355250612d536000f3fe608060405234801561001057600080fd5b50600436106100d45760003560e01c8063b4b57c3911610081578063c6a5026a1161005b578063c6a5026a146101a6578063cdca1753146101b9578063fa461e33146101cc576100d4565b8063b4b57c3914610173578063bd21704a1461017b578063c45a01551461019e576100d4565b80632f80bb1d116100b25780632f80bb1d146101385780634aa4a4fc1461014b578063ae22dd8214610160576100d4565b80630f007d38146100d9578063200762161461010557806321f619e614610125575b600080fd5b6100ec6100e736600461270b565b6101e1565b6040516100fc9493929190612bae565b60405180910390f35b61011861011336600461294c565b610493565b6040516100fc9190612ba5565b61011861013336600461294c565b6104a8565b6100ec610146366004612775565b6104b5565b6101536106ab565b6040516100fc9190612a7a565b6100ec61016e36600461270b565b6106cf565b610153610928565b61018e610189366004612893565b610944565b6040516100fc9493929190612c56565b610153610b77565b61018e6101b4366004612893565b610b9b565b6100ec6101c7366004612775565b610d56565b6101df6101da3660046127db565b610f2e565b005b600060608060006101f1876110ea565b67ffffffffffffffff8111801561020757600080fd5b50604051908082528060200260200182016040528015610231578160200160208202803683370190505b50925061023d876110ea565b67ffffffffffffffff8111801561025357600080fd5b5060405190808252806020026020018201604052801561027d578160200160208202803683370190505b509150855161028b886110ea565b146102cb576040517f08c379a00000000000000000000000000000000000000000000000000000000081526004016102c290612b6e565b60405180910390fd5b60005b60008060006102dc8b611119565b9250925092506102eb8a61114a565b60ff16610304576102fd898484610493565b9850610447565b61030d8a61114a565b60ff1660011415610415576000806000806103956040518060a001604052808973ffffffffffffffffffffffffffffffffffffffff1681526020018873ffffffffffffffffffffffffffffffffffffffff1681526020018f81526020018762ffffff168152602001600073ffffffffffffffffffffffffffffffffffffffff16815250610b9b565b9350935093509350828b89815181106103aa57fe5b602002602001019073ffffffffffffffffffffffffffffffffffffffff16908173ffffffffffffffffffffffffffffffffffffffff1681525050818a89815181106103f157fe5b63ffffffff90921660209283029190910190910152929b5050509490940193610447565b6040517f08c379a00000000000000000000000000000000000000000000000000000000081526004016102c290612b00565b6001909301926104568b61115c565b15610476576104648b611164565b9a5061046f8a611199565b9950610482565b8897505050505061048a565b5050506102ce565b93509350935093565b60006104a08484846111b4565b949350505050565b60006104a08484846111f6565b600060608060006104c5866110ea565b67ffffffffffffffff811180156104db57600080fd5b50604051908082528060200260200182016040528015610505578160200160208202803683370190505b509250610511866110ea565b67ffffffffffffffff8111801561052757600080fd5b50604051908082528060200260200182016040528015610551578160200160208202803683370190505b50915060005b60008060006105658a611119565b9250925092506000806000806105e86040518060a001604052808873ffffffffffffffffffffffffffffffffffffffff1681526020018973ffffffffffffffffffffffffffffffffffffffff1681526020018f81526020018762ffffff168152602001600073ffffffffffffffffffffffffffffffffffffffff16815250610944565b9350935093509350828b89815181106105fd57fe5b602002602001019073ffffffffffffffffffffffffffffffffffffffff16908173ffffffffffffffffffffffffffffffffffffffff1681525050818a898151811061064457fe5b63ffffffff90921660209283029190910190910152929b50968201966001909601958b926106718e61115c565b156106865761067f8e611164565b9d50610696565b8c9b5050505050505050506106a2565b50505050505050610557565b92959194509250565b7f000000000000000000000000000000000000000000000000000000000000000081565b600060608060006106df876110ea565b67ffffffffffffffff811180156106f557600080fd5b5060405190808252806020026020018201604052801561071f578160200160208202803683370190505b50925061072b876110ea565b67ffffffffffffffff8111801561074157600080fd5b5060405190808252806020026020018201604052801561076b578160200160208202803683370190505b5091508551610779886110ea565b146107b0576040517f08c379a00000000000000000000000000000000000000000000000000000000081526004016102c290612b6e565b60005b60008060006107c18b611119565b9250925092506107d08a61114a565b60ff166107e9576107e28983856104a8565b98506108f6565b6107f28a61114a565b60ff16600114156104155760008060008061087a6040518060a001604052808873ffffffffffffffffffffffffffffffffffffffff1681526020018973ffffffffffffffffffffffffffffffffffffffff1681526020018f81526020018762ffffff168152602001600073ffffffffffffffffffffffffffffffffffffffff16815250610944565b9350935093509350828b898151811061088f57fe5b602002602001019073ffffffffffffffffffffffffffffffffffffffff16908173ffffffffffffffffffffffffffffffffffffffff1681525050818a89815181106108d657fe5b63ffffffff90921660209283029190910190910152929b50505094909401935b6001909301926109058b61115c565b15610476576109138b611164565b9a5061091e8a611199565b99505050506107b3565b60005473ffffffffffffffffffffffffffffffffffffffff1681565b60208101518151606083015160009283928392839273ffffffffffffffffffffffffffffffffffffffff80821690841610928492610982929061122e565b9050866080015173ffffffffffffffffffffffffffffffffffffffff16600014156109b05760408701516001555b60005a90508173ffffffffffffffffffffffffffffffffffffffff1663128acb0830856109e08c60400151611264565b6000038c6080015173ffffffffffffffffffffffffffffffffffffffff16600014610a0f578c60800151610a35565b87610a2e5773fffd8963efd1fc6a506488495d951d5263988d25610a35565b6401000276a45b8d602001518e606001518f60000151604051602001610a5693929190612a14565b6040516020818303038152906040526040518663ffffffff1660e01b8152600401610a85959493929190612a9b565b6040805180830381600087803b158015610a9e57600080fd5b505af1925050508015610aec575060408051601f3d9081017fffffffffffffffffffffffffffffffffffffffffffffffffffffffffffffffe0168201909252610ae9918101906127b8565b60015b610b6a573d808015610b1a576040519150601f19603f3d011682016040523d82523d6000602084013e610b1f565b606091505b505a82039450886080015173ffffffffffffffffffffffffffffffffffffffff1660001415610b4e5760006001555b610b59818487611296565b975097509750975050505050610b70565b50505050505b9193509193565b7f000000000000000000000000000000000000000000000000000000000000000081565b60208101518151606083015160009283928392839273ffffffffffffffffffffffffffffffffffffffff80821690841610928492610bd9929061122e565b905060005a90508173ffffffffffffffffffffffffffffffffffffffff1663128acb083085610c0b8c60400151611264565b60808d015173ffffffffffffffffffffffffffffffffffffffff1615610c35578c60800151610c5b565b87610c545773fffd8963efd1fc6a506488495d951d5263988d25610c5b565b6401000276a45b8d600001518e606001518f60200151604051602001610c7c93929190612a14565b6040516020818303038152906040526040518663ffffffff1660e01b8152600401610cab959493929190612a9b565b6040805180830381600087803b158015610cc457600080fd5b505af1925050508015610d12575060408051601f3d9081017fffffffffffffffffffffffffffffffffffffffffffffffffffffffffffffffe0168201909252610d0f918101906127b8565b60015b610b6a573d808015610d40576040519150601f19603f3d011682016040523d82523d6000602084013e610d45565b606091505b505a82039450610b59818487611296565b60006060806000610d66866110ea565b67ffffffffffffffff81118015610d7c57600080fd5b50604051908082528060200260200182016040528015610da6578160200160208202803683370190505b509250610db2866110ea565b67ffffffffffffffff81118015610dc857600080fd5b50604051908082528060200260200182016040528015610df2578160200160208202803683370190505b50915060005b6000806000610e068a611119565b925092509250600080600080610e896040518060a001604052808973ffffffffffffffffffffffffffffffffffffffff1681526020018873ffffffffffffffffffffffffffffffffffffffff1681526020018f81526020018762ffffff168152602001600073ffffffffffffffffffffffffffffffffffffffff16815250610b9b565b9350935093509350828b8981518110610e9e57fe5b602002602001019073ffffffffffffffffffffffffffffffffffffffff16908173ffffffffffffffffffffffffffffffffffffffff1681525050818a8981518110610ee557fe5b63ffffffff90921660209283029190910190910152929b50968201966001909601958b92610f128e61115c565b1561068657610f208e611164565b9d5050505050505050610df8565b6000831380610f3d5750600082135b610f4657600080fd5b6000806000610f5484611119565b925092509250610f867f000000000000000000000000000000000000000000000000000000000000000084848461136a565b506000806000808913610fcc578573ffffffffffffffffffffffffffffffffffffffff168573ffffffffffffffffffffffffffffffffffffffff1610888a600003611001565b8473ffffffffffffffffffffffffffffffffffffffff168673ffffffffffffffffffffffffffffffffffffffff161089896000035b925092509250600061101487878761122e565b90506000808273ffffffffffffffffffffffffffffffffffffffff16633850c7bd6040518163ffffffff1660e01b815260040160e06040518083038186803b15801561105f57600080fd5b505afa158015611073573d6000803e3d6000fd5b505050506040513d601f19601f8201168201806040525081019061109791906128b5565b50505050509150915085156110bd57604051848152826020820152816040820152606081fd5b600154156110d35760015484146110d357600080fd5b604051858152826020820152816040820152606081fd5b805160177fffffffffffffffffffffffffffffffffffffffffffffffffffffffffffffffec909101045b919050565b600080806111278482611389565b9250611134846014611489565b9050611141846017611389565b91509193909250565b60006111568282611579565b92915050565b516042111590565b80516060906111569083906017907fffffffffffffffffffffffffffffffffffffffffffffffffffffffffffffffe901611669565b6060611156600180845103846116699092919063ffffffff16565b60008054819081906111dd9073ffffffffffffffffffffffffffffffffffffffff168686611850565b915091506111ec868383611938565b9695505050505050565b600080548190819061121f9073ffffffffffffffffffffffffffffffffffffffff168686611850565b915091506111ec868383611a0e565b60006104a07f000000000000000000000000000000000000000000000000000000000000000061125f868686611ada565b611b57565b60007f8000000000000000000000000000000000000000000000000000000000000000821061129257600080fd5b5090565b6000806000806000808773ffffffffffffffffffffffffffffffffffffffff16633850c7bd6040518163ffffffff1660e01b815260040160e06040518083038186803b1580156112e557600080fd5b505afa1580156112f9573d6000803e3d6000fd5b505050506040513d601f19601f8201168201806040525081019061131d91906128b5565b5093965061133294508d9350611c8d92505050565b9197509550905061135a73ffffffffffffffffffffffffffffffffffffffff89168383611d45565b9350869250505093509350935093565b60006113808561137b868686611ada565b61239d565b95945050505050565b6000818260140110156113fd57604080517f08c379a000000000000000000000000000000000000000000000000000000000815260206004820152601260248201527f746f416464726573735f6f766572666c6f770000000000000000000000000000604482015290519081900360640190fd5b816014018351101561147057604080517f08c379a000000000000000000000000000000000000000000000000000000000815260206004820152601560248201527f746f416464726573735f6f75744f66426f756e64730000000000000000000000604482015290519081900360640190fd5b5001602001516c01000000000000000000000000900490565b6000818260030110156114fd57604080517f08c379a000000000000000000000000000000000000000000000000000000000815260206004820152601160248201527f746f55696e7432345f6f766572666c6f77000000000000000000000000000000604482015290519081900360640190fd5b816003018351101561157057604080517f08c379a000000000000000000000000000000000000000000000000000000000815260206004820152601460248201527f746f55696e7432345f6f75744f66426f756e6473000000000000000000000000604482015290519081900360640190fd5b50016003015190565b6000818260010110156115ed57604080517f08c379a000000000000000000000000000000000000000000000000000000000815260206004820152601160248201527f746f55696e7432345f6f766572666c6f77000000000000000000000000000000604482015290519081900360640190fd5b816001018351101561166057604080517f08c379a000000000000000000000000000000000000000000000000000000000815260206004820152601460248201527f746f55696e7432345f6f75744f66426f756e6473000000000000000000000000604482015290519081900360640190fd5b50016001015190565b60608182601f0110156116dd57604080517f08c379a000000000000000000000000000000000000000000000000000000000815260206004820152600e60248201527f736c6963655f6f766572666c6f77000000000000000000000000000000000000604482015290519081900360640190fd5b82828401101561174e57604080517f08c379a000000000000000000000000000000000000000000000000000000000815260206004820152600e60248201527f736c6963655f6f766572666c6f77000000000000000000000000000000000000604482015290519081900360640190fd5b818301845110156117c057604080517f08c379a000000000000000000000000000000000000000000000000000000000815260206004820152601160248201527f736c6963655f6f75744f66426f756e6473000000000000000000000000000000604482015290519081900360640190fd5b6060821580156117df5760405191506000825260208201604052611847565b6040519150601f8416801560200281840101858101878315602002848b0101015b81831015611818578051835260209283019201611800565b5050858452601f017fffffffffffffffffffffffffffffffffffffffffffffffffffffffffffffffe016604052505b50949350505050565b600080600061185f85856123cd565b509050600080611870888888612472565b73ffffffffffffffffffffffffffffffffffffffff16630902f1ac6040518163ffffffff1660e01b815260040160606040518083038186803b1580156118b557600080fd5b505afa1580156118c9573d6000803e3d6000fd5b505050506040513d60608110156118df57600080fd5b5080516020909101516dffffffffffffffffffffffffffff918216935016905073ffffffffffffffffffffffffffffffffffffffff87811690841614611926578082611929565b81815b90999098509650505050505050565b60008084116119a857604080517f08c379a000000000000000000000000000000000000000000000000000000000815260206004820152601960248201527f494e53554646494349454e545f494e5055545f414d4f554e5400000000000000604482015290519081900360640190fd5b6000831180156119b85750600082115b6119c157600080fd5b60006119cf856103e561255d565b905060006119dd828561255d565b905060006119f7836119f1886103e861255d565b90612581565b9050808281611a0257fe5b04979650505050505050565b6000808411611a7e57604080517f08c379a000000000000000000000000000000000000000000000000000000000815260206004820152601a60248201527f494e53554646494349454e545f4f55545055545f414d4f554e54000000000000604482015290519081900360640190fd5b600083118015611a8e5750600082115b611a9757600080fd5b6000611aaf6103e8611aa9868861255d565b9061255d565b90506000611ac36103e5611aa98689612591565b90506111ec6001828481611ad357fe5b0490612581565b611ae26125da565b8273ffffffffffffffffffffffffffffffffffffffff168473ffffffffffffffffffffffffffffffffffffffff161115611b1a579192915b506040805160608101825273ffffffffffffffffffffffffffffffffffffffff948516815292909316602083015262ffffff169181019190915290565b6000816020015173ffffffffffffffffffffffffffffffffffffffff16826000015173ffffffffffffffffffffffffffffffffffffffff1610611b9957600080fd5b508051602080830151604093840151845173ffffffffffffffffffffffffffffffffffffffff94851681850152939091168385015262ffffff166060808401919091528351808403820181526080840185528051908301207fff0000000000000000000000000000000000000000000000000000000000000060a085015294901b7fffffffffffffffffffffffffffffffffffffffff0000000000000000000000001660a183015260b58201939093527fe34f199b19b2b4f47f68442619d555527d244f78a3297ea89325f843f87b8b5460d5808301919091528251808303909101815260f5909101909152805191012090565b60008060008351606014611d2457604484511015611cd7576040517f08c379a00000000000000000000000000000000000000000000000000000000081526004016102c290612b37565b60048401935083806020019051810190611cf19190612829565b6040517f08c379a00000000000000000000000000000000000000000000000000000000081526004016102c29190612aed565b83806020019051810190611d38919061298d565b9250925092509193909250565b60008060008060008060008060088b73ffffffffffffffffffffffffffffffffffffffff1663d0c93a7c6040518163ffffffff1660e01b815260040160206040518083038186803b158015611d9957600080fd5b505afa158015611dad573d6000803e3d6000fd5b505050506040513d6020811015611dc357600080fd5b5051600290810b908c900b81611dd557fe5b0560020b901d905060006101008c73ffffffffffffffffffffffffffffffffffffffff1663d0c93a7c6040518163ffffffff1660e01b815260040160206040518083038186803b158015611e2857600080fd5b505afa158015611e3c573d6000803e3d6000fd5b505050506040513d6020811015611e5257600080fd5b5051600290810b908d900b81611e6457fe5b0560020b81611e6f57fe5b079050600060088d73ffffffffffffffffffffffffffffffffffffffff1663d0c93a7c6040518163ffffffff1660e01b815260040160206040518083038186803b158015611ebc57600080fd5b505afa158015611ed0573d6000803e3d6000fd5b505050506040513d6020811015611ee657600080fd5b5051600290810b908d900b81611ef857fe5b0560020b901d905060006101008e73ffffffffffffffffffffffffffffffffffffffff1663d0c93a7c6040518163ffffffff1660e01b815260040160206040518083038186803b158015611f4b57600080fd5b505afa158015611f5f573d6000803e3d6000fd5b505050506040513d6020811015611f7557600080fd5b5051600290810b908e900b81611f8757fe5b0560020b81611f9257fe5b07905060008160ff166001901b8f73ffffffffffffffffffffffffffffffffffffffff16635339c296856040518263ffffffff1660e01b8152600401808260010b815260200191505060206040518083038186803b158015611ff357600080fd5b505afa158015612007573d6000803e3d6000fd5b505050506040513d602081101561201d57600080fd5b5051161180156120b057508d73ffffffffffffffffffffffffffffffffffffffff1663d0c93a7c6040518163ffffffff1660e01b815260040160206040518083038186803b15801561206e57600080fd5b505afa158015612082573d6000803e3d6000fd5b505050506040513d602081101561209857600080fd5b5051600290810b908d900b816120aa57fe5b0760020b155b80156120c157508b60020b8d60020b135b945060008360ff166001901b8f73ffffffffffffffffffffffffffffffffffffffff16635339c296876040518263ffffffff1660e01b8152600401808260010b815260200191505060206040518083038186803b15801561212157600080fd5b505afa158015612135573d6000803e3d6000fd5b505050506040513d602081101561214b57600080fd5b5051161180156121de57508d73ffffffffffffffffffffffffffffffffffffffff1663d0c93a7c6040518163ffffffff1660e01b815260040160206040518083038186803b15801561219c57600080fd5b505afa1580156121b0573d6000803e3d6000fd5b505050506040513d60208110156121c657600080fd5b5051600290810b908e900b816121d857fe5b0760020b155b80156121ef57508b60020b8d60020b125b95508160010b8460010b128061221b57508160010b8460010b14801561221b57508060ff168360ff1611155b156122315783995082975081985080965061223e565b8199508097508398508296505b50507fffffffffffffffffffffffffffffffffffffffffffffffffffffffffffffffff60ff87161b9150505b8560010b8760010b13612375578560010b8760010b14156122af577fffffffffffffffffffffffffffffffffffffffffffffffffffffffffffffffff60ff858103161c165b6000818c73ffffffffffffffffffffffffffffffffffffffff16635339c2968a6040518263ffffffff1660e01b8152600401808260010b815260200191505060206040518083038186803b15801561230657600080fd5b505afa15801561231a573d6000803e3d6000fd5b505050506040513d602081101561233057600080fd5b505116905061233e816125a1565b61ffff16989098019750506001909501947fffffffffffffffffffffffffffffffffffffffffffffffffffffffffffffffff61226a565b8115612382576001880397505b821561238f576001880397505b505050505050509392505050565b60006123a98383611b57565b90503373ffffffffffffffffffffffffffffffffffffffff82161461115657600080fd5b6000808273ffffffffffffffffffffffffffffffffffffffff168473ffffffffffffffffffffffffffffffffffffffff16141561240957600080fd5b8273ffffffffffffffffffffffffffffffffffffffff168473ffffffffffffffffffffffffffffffffffffffff1610612443578284612446565b83835b909250905073ffffffffffffffffffffffffffffffffffffffff821661246b57600080fd5b9250929050565b600080600061248185856123cd565b604080517fffffffffffffffffffffffffffffffffffffffff000000000000000000000000606094851b811660208084019190915293851b81166034830152825160288184030181526048830184528051908501207fff0000000000000000000000000000000000000000000000000000000000000060688401529a90941b9093166069840152607d8301989098527f96e8ac4277198ff8b6f785478aa9a39f403cb768dd02cbee326c3e7da348845f609d808401919091528851808403909101815260bd909201909752805196019590952095945050505050565b60008215806125785750508181028183828161257557fe5b04145b61115657600080fd5b8082018281101561115657600080fd5b8082038281111561115657600080fd5b6000805b8215611156577fffffffffffffffffffffffffffffffffffffffffffffffffffffffffffffffff8301909216916001016125a5565b604080516060810182526000808252602082018190529181019190915290565b600082601f83011261260a578081fd5b813561261d61261882612cb1565b612c8d565b818152846020838601011115612631578283fd5b816020850160208301379081016020019190915292915050565b8051600281900b811461111457600080fd5b600060a0828403121561266e578081fd5b60405160a0810181811067ffffffffffffffff8211171561268b57fe5b604052905080823561269c81612d21565b815260208301356126ac81612d21565b602082015260408381013590820152606083013562ffffff811681146126d157600080fd5b60608201526126e2608084016126ee565b60808201525092915050565b803561111481612d21565b805161ffff8116811461111457600080fd5b60008060006060848603121561271f578283fd5b833567ffffffffffffffff80821115612736578485fd5b612742878388016125fa565b94506020860135915080821115612757578384fd5b50612764868287016125fa565b925050604084013590509250925092565b60008060408385031215612787578182fd5b823567ffffffffffffffff81111561279d578283fd5b6127a9858286016125fa565b95602094909401359450505050565b600080604083850312156127ca578182fd5b505080516020909101519092909150565b6000806000606084860312156127ef578283fd5b8335925060208401359150604084013567ffffffffffffffff811115612813578182fd5b61281f868287016125fa565b9150509250925092565b60006020828403121561283a578081fd5b815167ffffffffffffffff811115612850578182fd5b8201601f81018413612860578182fd5b805161286e61261882612cb1565b818152856020838501011115612882578384fd5b611380826020830160208601612cf1565b600060a082840312156128a4578081fd5b6128ae838361265d565b9392505050565b600080600080600080600060e0888a0312156128cf578485fd5b87516128da81612d21565b96506128e86020890161264b565b95506128f6604089016126f9565b9450612904606089016126f9565b9350612912608089016126f9565b925060a088015160ff81168114612927578283fd5b60c0890151909250801515811461293c578182fd5b8091505092959891949750929550565b600080600060608486031215612960578081fd5b83359250602084013561297281612d21565b9150604084013561298281612d21565b809150509250925092565b6000806000606084860312156129a1578081fd5b8351925060208401516129b381612d21565b91506129c16040850161264b565b90509250925092565b600081518084526129e2816020860160208601612cf1565b601f017fffffffffffffffffffffffffffffffffffffffffffffffffffffffffffffffe0169290920160200192915050565b606093841b7fffffffffffffffffffffffffffffffffffffffff000000000000000000000000908116825260e89390931b7fffffff0000000000000000000000000000000000000000000000000000000000166014820152921b166017820152602b0190565b73ffffffffffffffffffffffffffffffffffffffff91909116815260200190565b600073ffffffffffffffffffffffffffffffffffffffff8088168352861515602084015285604084015280851660608401525060a06080830152612ae260a08301846129ca565b979650505050505050565b6000602082526128ae60208301846129ca565b60208082526016908201527f496e76616c69642070726f746f636f6c2076616c756500000000000000000000604082015260600190565b60208082526010908201527f556e6578706563746564206572726f7200000000000000000000000000000000604082015260600190565b6020808252600f908201527f4c656e677468206d69736d617463680000000000000000000000000000000000604082015260600190565b90815260200190565b600060808201868352602060808185015281875180845260a0860191508289019350845b81811015612c0457845173ffffffffffffffffffffffffffffffffffffffff1683529383019391830191600101612bd2565b505084810360408601528651808252908201925081870190845b81811015612c4057825163ffffffff1685529383019391830191600101612c1e565b5050505060609290920192909252949350505050565b93845273ffffffffffffffffffffffffffffffffffffffff92909216602084015263ffffffff166040830152606082015260800190565b60405181810167ffffffffffffffff81118282101715612ca957fe5b604052919050565b600067ffffffffffffffff821115612cc557fe5b50601f017fffffffffffffffffffffffffffffffffffffffffffffffffffffffffffffffe01660200190565b60005b83811015612d0c578181015183820152602001612cf4565b83811115612d1b576000848401525b50505050565b73ffffffffffffffffffffffffffffffffffffffff81168114612d4357600080fd5b5056fea164736f6c6343000706000a",
  "linkReferences": {},
  "deployedLinkReferences": {}
}