{
  "_format": "hh-sol-artifact-1",
  "contractName": "QuoterV3",
  "sourceName": "contracts/lens/QuoterV3.sol",
  "abi": [
    {
      "inputs": [
        {
          "internalType": "address",
          "name": "_factory",
          "type": "address"
        },
        {
          "internalType": "address",
          "name": "_v2Factory",
          "type": "address"
        },
        {
          "internalType": "address",
          "name": "_WETH9",
          "type": "address"
        }
      ],
      "stateMutability": "nonpayable",
      "type": "constructor"
    },
    {
      "inputs": [],
      "name": "WETH9",
      "outputs": [
        {
          "internalType": "address",
          "name": "",
          "type": "address"
        }
      ],
      "stateMutability": "view",
      "type": "function"
    },
    {
      "inputs": [],
      "name": "factory",
      "outputs": [
        {
          "internalType": "address",
          "name": "",
          "type": "address"
        }
      ],
      "stateMutability": "view",
      "type": "function"
    },
    {
      "inputs": [
        {
          "internalType": "bytes",
          "name": "path",
          "type": "bytes"
        },
        {
          "internalType": "uint256",
          "name": "amountIn",
          "type": "uint256"
        }
      ],
      "name": "quoteExactInput",
      "outputs": [
        {
          "internalType": "uint256",
          "name": "amountOut",
          "type": "uint256"
        },
        {
          "internalType": "uint160[]",
          "name": "sqrtPriceX96AfterList",
          "type": "uint160[]"
        },
        {
          "internalType": "uint32[]",
          "name": "initializedTicksCrossedList",
          "type": "uint32[]"
        },
        {
          "internalType": "uint256",
          "name": "gasEstimate",
          "type": "uint256"
        }
      ],
      "stateMutability": "nonpayable",
      "type": "function"
    },
    {
      "inputs": [
        {
          "components": [
            {
              "internalType": "address",
              "name": "tokenIn",
              "type": "address"
            },
            {
              "internalType": "address",
              "name": "tokenOut",
              "type": "address"
            },
            {
              "internalType": "uint256",
              "name": "amountIn",
              "type": "uint256"
            },
            {
              "internalType": "uint24",
              "name": "fee",
              "type": "uint24"
            },
            {
              "internalType": "uint160",
              "name": "sqrtPriceLimitX96",
              "type": "uint160"
            }
          ],
          "internalType": "struct IQuoterV3.QuoteExactInputSingleParams",
          "name": "params",
          "type": "tuple"
        }
      ],
      "name": "quoteExactInputSingle",
      "outputs": [
        {
          "internalType": "uint256",
          "name": "amountOut",
          "type": "uint256"
        },
        {
          "internalType": "uint160",
          "name": "sqrtPriceX96After",
          "type": "uint160"
        },
        {
          "internalType": "uint32",
          "name": "initializedTicksCrossed",
          "type": "uint32"
        },
        {
          "internalType": "uint256",
          "name": "gasEstimate",
          "type": "uint256"
        }
      ],
      "stateMutability": "nonpayable",
      "type": "function"
    },
    {
      "inputs": [
        {
          "internalType": "uint256",
          "name": "amountIn",
          "type": "uint256"
        },
        {
          "internalType": "address",
          "name": "tokenIn",
          "type": "address"
        },
        {
          "internalType": "address",
          "name": "tokenOut",
          "type": "address"
        }
      ],
      "name": "quoteExactInputSingleV2",
      "outputs": [
        {
          "internalType": "uint256",
          "name": "amountOut",
          "type": "uint256"
        }
      ],
      "stateMutability": "view",
      "type": "function"
    },
    {
      "inputs": [
        {
          "internalType": "bytes",
          "name": "path",
          "type": "bytes"
        },
        {
          "internalType": "uint256",
          "name": "amountOut",
          "type": "uint256"
        }
      ],
      "name": "quoteExactOutput",
      "outputs": [
        {
          "internalType": "uint256",
          "name": "amountIn",
          "type": "uint256"
        },
        {
          "internalType": "uint160[]",
          "name": "sqrtPriceX96AfterList",
          "type": "uint160[]"
        },
        {
          "internalType": "uint32[]",
          "name": "initializedTicksCrossedList",
          "type": "uint32[]"
        },
        {
          "internalType": "uint256",
          "name": "gasEstimate",
          "type": "uint256"
        }
      ],
      "stateMutability": "nonpayable",
      "type": "function"
    },
    {
      "inputs": [
        {
          "components": [
            {
              "internalType": "address",
              "name": "tokenIn",
              "type": "address"
            },
            {
              "internalType": "address",
              "name": "tokenOut",
              "type": "address"
            },
            {
              "internalType": "uint256",
              "name": "amount",
              "type": "uint256"
            },
            {
              "internalType": "uint24",
              "name": "fee",
              "type": "uint24"
            },
            {
              "internalType": "uint160",
              "name": "sqrtPriceLimitX96",
              "type": "uint160"
            }
          ],
          "internalType": "struct IQuoterV3.QuoteExactOutputSingleParams",
          "name": "params",
          "type": "tuple"
        }
      ],
      "name": "quoteExactOutputSingle",
      "outputs": [
        {
          "internalType": "uint256",
          "name": "amountIn",
          "type": "uint256"
        },
        {
          "internalType": "uint160",
          "name": "sqrtPriceX96After",
          "type": "uint160"
        },
        {
          "internalType": "uint32",
          "name": "initializedTicksCrossed",
          "type": "uint32"
        },
        {
          "internalType": "uint256",
          "name": "gasEstimate",
          "type": "uint256"
        }
      ],
      "stateMutability": "nonpayable",
      "type": "function"
    },
    {
      "inputs": [
        {
          "internalType": "uint256",
          "name": "amountOut",
          "type": "uint256"
        },
        {
          "internalType": "address",
          "name": "tokenIn",
          "type": "address"
        },
        {
          "internalType": "address",
          "name": "tokenOut",
          "type": "address"
        }
      ],
      "name": "quoteExactOutputSingleV2",
      "outputs": [
        {
          "internalType": "uint256",
          "name": "amountIn",
          "type": "uint256"
        }
      ],
      "stateMutability": "view",
      "type": "function"
    },
    {
      "inputs": [
        {
          "internalType": "int256",
          "name": "amount0Delta",
          "type": "int256"
        },
        {
          "internalType": "int256",
          "name": "amount1Delta",
          "type": "int256"
        },
        {
          "internalType": "bytes",
          "name": "path",
          "type": "bytes"
        }
      ],
      "name": "uniswapV3SwapCallback",
      "outputs": [],
      "stateMutability": "view",
      "type": "function"
    },
    {
      "inputs": [],
      "name": "v2Factory",
      "outputs": [
        {
          "internalType": "address",
          "name": "",
          "type": "address"
        }
      ],
      "stateMutability": "view",
      "type": "function"
    }
  ],
  "bytecode": "0x60c06040526002805462ffffff1916628000001790553480156200002257600080fd5b5060405162002784380380620027848339810160408190526200004591620000a3565b606092831b6001600160601b0319908116608052921b90911660a052600080546001600160a01b0319166001600160a01b03909216919091179055620000ec565b80516001600160a01b03811681146200009e57600080fd5b919050565b600080600060608486031215620000b8578283fd5b620000c38462000086565b9250620000d36020850162000086565b9150620000e36040850162000086565b90509250925092565b60805160601c60a05160601c61266462000120600039806103dc52508061064f5280610a565280610d0552506126646000f3fe608060405234801561001057600080fd5b50600436106100be5760003560e01c8063bd21704a11610076578063c6a5026a1161005b578063c6a5026a1461016a578063cdca17531461017d578063fa461e3314610190576100be565b8063bd21704a1461013f578063c45a015514610162576100be565b80632f80bb1d116100a75780632f80bb1d146100ff5780634aa4a4fc14610122578063b4b57c3914610137576100be565b806320076216146100c357806321f619e6146100ec575b600080fd5b6100d66100d13660046122cb565b6101a5565b6040516100e391906124b6565b60405180910390f35b6100d66100fa3660046122cb565b6101ba565b61011261010d3660046120f4565b6101c7565b6040516100e394939291906124bf565b61012a6103da565b6040516100e391906123f9565b61012a6103fe565b61015261014d366004612212565b61041a565b6040516100e39493929190612567565b61012a61064d565b610152610178366004612212565b610671565b61011261018b3660046120f4565b61082c565b6101a361019e36600461215a565b610a25565b005b60006101b2848484610be1565b949350505050565b60006101b2848484610c23565b600060608060006101d786610c5b565b67ffffffffffffffff811180156101ed57600080fd5b50604051908082528060200260200182016040528015610217578160200160208202803683370190505b50925061022386610c5b565b67ffffffffffffffff8111801561023957600080fd5b50604051908082528060200260200182016040528015610263578160200160208202803683370190505b50915060005b60008060006102778a610c8a565b6002549295509093509150811662ffffff16156102a0576102998983856101ba565b9850610399565b60008060008061031d6040518060a001604052808873ffffffffffffffffffffffffffffffffffffffff1681526020018973ffffffffffffffffffffffffffffffffffffffff1681526020018f81526020018762ffffff168152602001600073ffffffffffffffffffffffffffffffffffffffff1681525061041a565b9350935093509350828b898151811061033257fe5b602002602001019073ffffffffffffffffffffffffffffffffffffffff16908173ffffffffffffffffffffffffffffffffffffffff1681525050818a898151811061037957fe5b63ffffffff90921660209283029190910190910152929b50505094909401935b6001909301926103a88a610cbb565b156103bd576103b68a610cc3565b99506103c9565b889750505050506103d1565b505050610269565b92959194509250565b7f000000000000000000000000000000000000000000000000000000000000000081565b60005473ffffffffffffffffffffffffffffffffffffffff1681565b60208101518151606083015160009283928392839273ffffffffffffffffffffffffffffffffffffffff808216908416109284926104589290610cfe565b9050866080015173ffffffffffffffffffffffffffffffffffffffff16600014156104865760408701516001555b60005a90508173ffffffffffffffffffffffffffffffffffffffff1663128acb0830856104b68c60400151610d34565b6000038c6080015173ffffffffffffffffffffffffffffffffffffffff166000146104e5578c6080015161050b565b876105045773fffd8963efd1fc6a506488495d951d5263988d2561050b565b6401000276a45b8d602001518e606001518f6000015160405160200161052c93929190612393565b6040516020818303038152906040526040518663ffffffff1660e01b815260040161055b95949392919061241a565b6040805180830381600087803b15801561057457600080fd5b505af19250505080156105c2575060408051601f3d9081017fffffffffffffffffffffffffffffffffffffffffffffffffffffffffffffffe01682019092526105bf91810190612137565b60015b610640573d8080156105f0576040519150601f19603f3d011682016040523d82523d6000602084013e6105f5565b606091505b505a82039450886080015173ffffffffffffffffffffffffffffffffffffffff16600014156106245760006001555b61062f818487610d66565b975097509750975050505050610646565b50505050505b9193509193565b7f000000000000000000000000000000000000000000000000000000000000000081565b60208101518151606083015160009283928392839273ffffffffffffffffffffffffffffffffffffffff808216908416109284926106af9290610cfe565b905060005a90508173ffffffffffffffffffffffffffffffffffffffff1663128acb0830856106e18c60400151610d34565b60808d015173ffffffffffffffffffffffffffffffffffffffff161561070b578c60800151610731565b8761072a5773fffd8963efd1fc6a506488495d951d5263988d25610731565b6401000276a45b8d600001518e606001518f6020015160405160200161075293929190612393565b6040516020818303038152906040526040518663ffffffff1660e01b815260040161078195949392919061241a565b6040805180830381600087803b15801561079a57600080fd5b505af19250505080156107e8575060408051601f3d9081017fffffffffffffffffffffffffffffffffffffffffffffffffffffffffffffffe01682019092526107e591810190612137565b60015b610640573d808015610816576040519150601f19603f3d011682016040523d82523d6000602084013e61081b565b606091505b505a8203945061062f818487610d66565b6000606080600061083c86610c5b565b67ffffffffffffffff8111801561085257600080fd5b5060405190808252806020026020018201604052801561087c578160200160208202803683370190505b50925061088886610c5b565b67ffffffffffffffff8111801561089e57600080fd5b506040519080825280602002602001820160405280156108c8578160200160208202803683370190505b50915060005b60008060006108dc8a610c8a565b6002549295509093509150811662ffffff1615610905576108fe8984846101a5565b98506109fe565b6000806000806109826040518060a001604052808973ffffffffffffffffffffffffffffffffffffffff1681526020018873ffffffffffffffffffffffffffffffffffffffff1681526020018f81526020018762ffffff168152602001600073ffffffffffffffffffffffffffffffffffffffff16815250610671565b9350935093509350828b898151811061099757fe5b602002602001019073ffffffffffffffffffffffffffffffffffffffff16908173ffffffffffffffffffffffffffffffffffffffff1681525050818a89815181106109de57fe5b63ffffffff90921660209283029190910190910152929b50505094909401935b600190930192610a0d8a610cbb565b156103bd57610a1b8a610cc3565b99505050506108ce565b6000831380610a345750600082135b610a3d57600080fd5b6000806000610a4b84610c8a565b925092509250610a7d7f0000000000000000000000000000000000000000000000000000000000000000848484610e3a565b506000806000808913610ac3578573ffffffffffffffffffffffffffffffffffffffff168573ffffffffffffffffffffffffffffffffffffffff1610888a600003610af8565b8473ffffffffffffffffffffffffffffffffffffffff168673ffffffffffffffffffffffffffffffffffffffff161089896000035b9250925092506000610b0b878787610cfe565b90506000808273ffffffffffffffffffffffffffffffffffffffff16633850c7bd6040518163ffffffff1660e01b815260040160e06040518083038186803b158015610b5657600080fd5b505afa158015610b6a573d6000803e3d6000fd5b505050506040513d601f19601f82011682018060405250810190610b8e9190612234565b5050505050915091508515610bb457604051848152826020820152816040820152606081fd5b60015415610bca576001548414610bca57600080fd5b604051858152826020820152816040820152606081fd5b6000805481908190610c0a9073ffffffffffffffffffffffffffffffffffffffff168686610e59565b91509150610c19868383610f41565b9695505050505050565b6000805481908190610c4c9073ffffffffffffffffffffffffffffffffffffffff168686610e59565b91509150610c19868383611017565b805160177fffffffffffffffffffffffffffffffffffffffffffffffffffffffffffffffec909101045b919050565b60008080610c9884826110e3565b9250610ca58460146111e3565b9050610cb28460176110e3565b91509193909250565b516042111590565b8051606090610cf89083906017907fffffffffffffffffffffffffffffffffffffffffffffffffffffffffffffffe9016112d3565b92915050565b60006101b27f0000000000000000000000000000000000000000000000000000000000000000610d2f8686866114ba565b611537565b60007f80000000000000000000000000000000000000000000000000000000000000008210610d6257600080fd5b5090565b6000806000806000808773ffffffffffffffffffffffffffffffffffffffff16633850c7bd6040518163ffffffff1660e01b815260040160e06040518083038186803b158015610db557600080fd5b505afa158015610dc9573d6000803e3d6000fd5b505050506040513d601f19601f82011682018060405250810190610ded9190612234565b50939650610e0294508d935061166d92505050565b91975095509050610e2a73ffffffffffffffffffffffffffffffffffffffff8916838361172e565b9350869250505093509350935093565b6000610e5085610e4b8686866114ba565b611d86565b95945050505050565b6000806000610e688585611db6565b509050600080610e79888888611e5b565b73ffffffffffffffffffffffffffffffffffffffff16630902f1ac6040518163ffffffff1660e01b815260040160606040518083038186803b158015610ebe57600080fd5b505afa158015610ed2573d6000803e3d6000fd5b505050506040513d6060811015610ee857600080fd5b5080516020909101516dffffffffffffffffffffffffffff918216935016905073ffffffffffffffffffffffffffffffffffffffff87811690841614610f2f578082610f32565b81815b90999098509650505050505050565b6000808411610fb157604080517f08c379a000000000000000000000000000000000000000000000000000000000815260206004820152601960248201527f494e53554646494349454e545f494e5055545f414d4f554e5400000000000000604482015290519081900360640190fd5b600083118015610fc15750600082115b610fca57600080fd5b6000610fd8856103e5611f46565b90506000610fe68285611f46565b9050600061100083610ffa886103e8611f46565b90611f6a565b905080828161100b57fe5b04979650505050505050565b600080841161108757604080517f08c379a000000000000000000000000000000000000000000000000000000000815260206004820152601a60248201527f494e53554646494349454e545f4f55545055545f414d4f554e54000000000000604482015290519081900360640190fd5b6000831180156110975750600082115b6110a057600080fd5b60006110b86103e86110b28688611f46565b90611f46565b905060006110cc6103e56110b28689611f7a565b9050610c1960018284816110dc57fe5b0490611f6a565b60008182601401101561115757604080517f08c379a000000000000000000000000000000000000000000000000000000000815260206004820152601260248201527f746f416464726573735f6f766572666c6f770000000000000000000000000000604482015290519081900360640190fd5b81601401835110156111ca57604080517f08c379a000000000000000000000000000000000000000000000000000000000815260206004820152601560248201527f746f416464726573735f6f75744f66426f756e64730000000000000000000000604482015290519081900360640190fd5b5001602001516c01000000000000000000000000900490565b60008182600301101561125757604080517f08c379a000000000000000000000000000000000000000000000000000000000815260206004820152601160248201527f746f55696e7432345f6f766572666c6f77000000000000000000000000000000604482015290519081900360640190fd5b81600301835110156112ca57604080517f08c379a000000000000000000000000000000000000000000000000000000000815260206004820152601460248201527f746f55696e7432345f6f75744f66426f756e6473000000000000000000000000604482015290519081900360640190fd5b50016003015190565b60608182601f01101561134757604080517f08c379a000000000000000000000000000000000000000000000000000000000815260206004820152600e60248201527f736c6963655f6f766572666c6f77000000000000000000000000000000000000604482015290519081900360640190fd5b8282840110156113b857604080517f08c379a000000000000000000000000000000000000000000000000000000000815260206004820152600e60248201527f736c6963655f6f766572666c6f77000000000000000000000000000000000000604482015290519081900360640190fd5b8183018451101561142a57604080517f08c379a000000000000000000000000000000000000000000000000000000000815260206004820152601160248201527f736c6963655f6f75744f66426f756e6473000000000000000000000000000000604482015290519081900360640190fd5b60608215801561144957604051915060008252602082016040526114b1565b6040519150601f8416801560200281840101858101878315602002848b0101015b8183101561148257805183526020928301920161146a565b5050858452601f017fffffffffffffffffffffffffffffffffffffffffffffffffffffffffffffffe016604052505b50949350505050565b6114c2611fc3565b8273ffffffffffffffffffffffffffffffffffffffff168473ffffffffffffffffffffffffffffffffffffffff1611156114fa579192915b506040805160608101825273ffffffffffffffffffffffffffffffffffffffff948516815292909316602083015262ffffff169181019190915290565b6000816020015173ffffffffffffffffffffffffffffffffffffffff16826000015173ffffffffffffffffffffffffffffffffffffffff161061157957600080fd5b508051602080830151604093840151845173ffffffffffffffffffffffffffffffffffffffff94851681850152939091168385015262ffffff166060808401919091528351808403820181526080840185528051908301207fff0000000000000000000000000000000000000000000000000000000000000060a085015294901b7fffffffffffffffffffffffffffffffffffffffff0000000000000000000000001660a183015260b58201939093527fe34f199b19b2b4f47f68442619d555527d244f78a3297ea89325f843f87b8b5460d5808301919091528251808303909101815260f5909101909152805191012090565b6000806000835160601461170d576044845110156116c0576040517f08c379a00000000000000000000000000000000000000000000000000000000081526004016116b79061247f565b60405180910390fd5b600484019350838060200190518101906116da91906121a8565b6040517f08c379a00000000000000000000000000000000000000000000000000000000081526004016116b7919061246c565b83806020019051810190611721919061230c565b9250925092509193909250565b60008060008060008060008060088b73ffffffffffffffffffffffffffffffffffffffff1663d0c93a7c6040518163ffffffff1660e01b815260040160206040518083038186803b15801561178257600080fd5b505afa158015611796573d6000803e3d6000fd5b505050506040513d60208110156117ac57600080fd5b5051600290810b908c900b816117be57fe5b0560020b901d905060006101008c73ffffffffffffffffffffffffffffffffffffffff1663d0c93a7c6040518163ffffffff1660e01b815260040160206040518083038186803b15801561181157600080fd5b505afa158015611825573d6000803e3d6000fd5b505050506040513d602081101561183b57600080fd5b5051600290810b908d900b8161184d57fe5b0560020b8161185857fe5b079050600060088d73ffffffffffffffffffffffffffffffffffffffff1663d0c93a7c6040518163ffffffff1660e01b815260040160206040518083038186803b1580156118a557600080fd5b505afa1580156118b9573d6000803e3d6000fd5b505050506040513d60208110156118cf57600080fd5b5051600290810b908d900b816118e157fe5b0560020b901d905060006101008e73ffffffffffffffffffffffffffffffffffffffff1663d0c93a7c6040518163ffffffff1660e01b815260040160206040518083038186803b15801561193457600080fd5b505afa158015611948573d6000803e3d6000fd5b505050506040513d602081101561195e57600080fd5b5051600290810b908e900b8161197057fe5b0560020b8161197b57fe5b07905060008160ff166001901b8f73ffffffffffffffffffffffffffffffffffffffff16635339c296856040518263ffffffff1660e01b8152600401808260010b815260200191505060206040518083038186803b1580156119dc57600080fd5b505afa1580156119f0573d6000803e3d6000fd5b505050506040513d6020811015611a0657600080fd5b505116118015611a9957508d73ffffffffffffffffffffffffffffffffffffffff1663d0c93a7c6040518163ffffffff1660e01b815260040160206040518083038186803b158015611a5757600080fd5b505afa158015611a6b573d6000803e3d6000fd5b505050506040513d6020811015611a8157600080fd5b5051600290810b908d900b81611a9357fe5b0760020b155b8015611aaa57508b60020b8d60020b135b945060008360ff166001901b8f73ffffffffffffffffffffffffffffffffffffffff16635339c296876040518263ffffffff1660e01b8152600401808260010b815260200191505060206040518083038186803b158015611b0a57600080fd5b505afa158015611b1e573d6000803e3d6000fd5b505050506040513d6020811015611b3457600080fd5b505116118015611bc757508d73ffffffffffffffffffffffffffffffffffffffff1663d0c93a7c6040518163ffffffff1660e01b815260040160206040518083038186803b158015611b8557600080fd5b505afa158015611b99573d6000803e3d6000fd5b505050506040513d6020811015611baf57600080fd5b5051600290810b908e900b81611bc157fe5b0760020b155b8015611bd857508b60020b8d60020b125b95508160010b8460010b1280611c0457508160010b8460010b148015611c0457508060ff168360ff1611155b15611c1a57839950829750819850809650611c27565b8199508097508398508296505b50507fffffffffffffffffffffffffffffffffffffffffffffffffffffffffffffffff60ff87161b9150505b8560010b8760010b13611d5e578560010b8760010b1415611c98577fffffffffffffffffffffffffffffffffffffffffffffffffffffffffffffffff60ff858103161c165b6000818c73ffffffffffffffffffffffffffffffffffffffff16635339c2968a6040518263ffffffff1660e01b8152600401808260010b815260200191505060206040518083038186803b158015611cef57600080fd5b505afa158015611d03573d6000803e3d6000fd5b505050506040513d6020811015611d1957600080fd5b5051169050611d2781611f8a565b61ffff16989098019750506001909501947fffffffffffffffffffffffffffffffffffffffffffffffffffffffffffffffff611c53565b8115611d6b576001880397505b8215611d78576001880397505b505050505050509392505050565b6000611d928383611537565b90503373ffffffffffffffffffffffffffffffffffffffff821614610cf857600080fd5b6000808273ffffffffffffffffffffffffffffffffffffffff168473ffffffffffffffffffffffffffffffffffffffff161415611df257600080fd5b8273ffffffffffffffffffffffffffffffffffffffff168473ffffffffffffffffffffffffffffffffffffffff1610611e2c578284611e2f565b83835b909250905073ffffffffffffffffffffffffffffffffffffffff8216611e5457600080fd5b9250929050565b6000806000611e6a8585611db6565b604080517fffffffffffffffffffffffffffffffffffffffff000000000000000000000000606094851b811660208084019190915293851b81166034830152825160288184030181526048830184528051908501207fff0000000000000000000000000000000000000000000000000000000000000060688401529a90941b9093166069840152607d8301989098527f96e8ac4277198ff8b6f785478aa9a39f403cb768dd02cbee326c3e7da348845f609d808401919091528851808403909101815260bd909201909752805196019590952095945050505050565b6000821580611f6157505081810281838281611f5e57fe5b04145b610cf857600080fd5b80820182811015610cf857600080fd5b80820382811115610cf857600080fd5b6000805b8215610cf8577fffffffffffffffffffffffffffffffffffffffffffffffffffffffffffffffff830190921691600101611f8e565b604080516060810182526000808252602082018190529181019190915290565b600082601f830112611ff3578081fd5b8135612006612001826125c2565b61259e565b81815284602083860101111561201a578283fd5b816020850160208301379081016020019190915292915050565b8051600281900b8114610c8557600080fd5b600060a08284031215612057578081fd5b60405160a0810181811067ffffffffffffffff8211171561207457fe5b604052905080823561208581612632565b8152602083013561209581612632565b602082015260408381013590820152606083013562ffffff811681146120ba57600080fd5b60608201526120cb608084016120d7565b60808201525092915050565b8035610c8581612632565b805161ffff81168114610c8557600080fd5b60008060408385031215612106578182fd5b823567ffffffffffffffff81111561211c578283fd5b61212885828601611fe3565b95602094909401359450505050565b60008060408385031215612149578182fd5b505080516020909101519092909150565b60008060006060848603121561216e578081fd5b8335925060208401359150604084013567ffffffffffffffff811115612192578182fd5b61219e86828701611fe3565b9150509250925092565b6000602082840312156121b9578081fd5b815167ffffffffffffffff8111156121cf578182fd5b8201601f810184136121df578182fd5b80516121ed612001826125c2565b818152856020838501011115612201578384fd5b610e50826020830160208601612602565b600060a08284031215612223578081fd5b61222d8383612046565b9392505050565b600080600080600080600060e0888a03121561224e578283fd5b875161225981612632565b965061226760208901612034565b9550612275604089016120e2565b9450612283606089016120e2565b9350612291608089016120e2565b925060a088015160ff811681146122a6578283fd5b60c089015190925080151581146122bb578182fd5b8091505092959891949750929550565b6000806000606084860312156122df578081fd5b8335925060208401356122f181612632565b9150604084013561230181612632565b809150509250925092565b600080600060608486031215612320578081fd5b83519250602084015161233281612632565b915061234060408501612034565b90509250925092565b60008151808452612361816020860160208601612602565b601f017fffffffffffffffffffffffffffffffffffffffffffffffffffffffffffffffe0169290920160200192915050565b606093841b7fffffffffffffffffffffffffffffffffffffffff000000000000000000000000908116825260e89390931b7fffffff0000000000000000000000000000000000000000000000000000000000166014820152921b166017820152602b0190565b73ffffffffffffffffffffffffffffffffffffffff91909116815260200190565b600073ffffffffffffffffffffffffffffffffffffffff8088168352861515602084015285604084015280851660608401525060a0608083015261246160a0830184612349565b979650505050505050565b60006020825261222d6020830184612349565b60208082526010908201527f556e6578706563746564206572726f7200000000000000000000000000000000604082015260600190565b90815260200190565b600060808201868352602060808185015281875180845260a0860191508289019350845b8181101561251557845173ffffffffffffffffffffffffffffffffffffffff16835293830193918301916001016124e3565b505084810360408601528651808252908201925081870190845b8181101561255157825163ffffffff168552938301939183019160010161252f565b5050505060609290920192909252949350505050565b93845273ffffffffffffffffffffffffffffffffffffffff92909216602084015263ffffffff166040830152606082015260800190565b60405181810167ffffffffffffffff811182821017156125ba57fe5b604052919050565b600067ffffffffffffffff8211156125d657fe5b50601f017fffffffffffffffffffffffffffffffffffffffffffffffffffffffffffffffe01660200190565b60005b8381101561261d578181015183820152602001612605565b8381111561262c576000848401525b50505050565b73ffffffffffffffffffffffffffffffffffffffff8116811461265457600080fd5b5056fea164736f6c6343000706000a",
  "linkReferences": {},
  "deployedLinkReferences": {}
}